{
  "contractName": "Token",
  "abi": [
    {
      "constant": true,
      "inputs": [],
      "name": "totalSupply",
      "outputs": [
        {
          "internalType": "uint256",
          "name": "",
          "type": "uint256"
        }
      ],
      "payable": false,
      "stateMutability": "view",
      "type": "function"
    },
    {
      "constant": false,
      "inputs": [
        {
          "internalType": "uint256",
          "name": "_initialSupply",
          "type": "uint256"
        }
      ],
      "name": "token",
      "outputs": [],
      "payable": false,
      "stateMutability": "nonpayable",
      "type": "function"
    }
  ],
  "bytecode": "0x608060405234801561001057600080fd5b5060c38061001f6000396000f3fe6080604052348015600f57600080fd5b506004361060325760003560e01c8063044215c614603757806318160ddd146062575b600080fd5b606060048036036020811015604b57600080fd5b8101908080359060200190929190505050607e565b005b60686088565b6040518082815260200191505060405180910390f35b8060008190555050565b6000548156fea265627a7a72315820fb6a67e10054b6db03e7882e54b4bd4c928d5f92948c426ffe9def16029a465064736f6c63430005100032",
  "source": "pragma solidity ^0.5.0;\r\n\r\ncontract Token {\r\n\r\n\tuint256 public totalSupply;\r\n\r\n\tfunction token(uint256 _initialSupply) public{\r\n\r\n\t\ttotalSupply = _initialSupply;\r\n\r\n\t}\r\n}// cd DApp-Projects/MyToken",
  "sourcePath": "C:/Users/30698/DApp-Projects/MyToken/contracts/Token.sol",
  "compiler": {
    "name": "solc",
    "version": "0.5.16+commit.9c3226ce.Emscripten.clang"
  },
  "schemaVersion": "3.2.3",
  "updatedAt": "2022-05-21T19:26:04.035Z",
  "networkType": "ethereum",
  "devdoc": {
    "methods": {}
  },
  "userdoc": {
    "methods": {}
  }
}